{
  "_format": "hh-sol-artifact-1",
  "contractName": "DriveShare",
  "sourceName": "contracts/DriveShare.sol",
  "abi": [
    {
      "inputs": [
        {
          "internalType": "address",
          "name": "",
          "type": "address"
        },
        {
          "internalType": "uint256",
          "name": "",
          "type": "uint256"
        }
      ],
      "name": "accessList",
      "outputs": [
        {
          "internalType": "address",
          "name": "user",
          "type": "address"
        },
        {
          "internalType": "bool",
          "name": "access",
          "type": "bool"
        }
      ],
      "stateMutability": "view",
      "type": "function"
    },
    {
      "inputs": [
        {
          "internalType": "address",
          "name": "_userAddress",
          "type": "address"
        },
        {
          "internalType": "string",
          "name": "url",
          "type": "string"
        }
      ],
      "name": "add",
      "outputs": [],
      "stateMutability": "nonpayable",
      "type": "function"
    },
    {
      "inputs": [
        {
          "internalType": "address",
          "name": "userAddress",
          "type": "address"
        }
      ],
      "name": "allow",
      "outputs": [],
      "stateMutability": "nonpayable",
      "type": "function"
    },
    {
      "inputs": [
        {
          "internalType": "address",
          "name": "userAddress",
          "type": "address"
        }
      ],
      "name": "disAllow",
      "outputs": [],
      "stateMutability": "nonpayable",
      "type": "function"
    },
    {
      "inputs": [
        {
          "internalType": "address",
          "name": "_user",
          "type": "address"
        }
      ],
      "name": "display",
      "outputs": [
        {
          "internalType": "string[]",
          "name": "",
          "type": "string[]"
        }
      ],
      "stateMutability": "view",
      "type": "function"
    },
    {
      "inputs": [],
      "name": "shareAccess",
      "outputs": [
        {
          "components": [
            {
              "internalType": "address",
              "name": "user",
              "type": "address"
            },
            {
              "internalType": "bool",
              "name": "access",
              "type": "bool"
            }
          ],
          "internalType": "struct DriveShare.Access[]",
          "name": "",
          "type": "tuple[]"
        }
      ],
      "stateMutability": "view",
      "type": "function"
    }
  ],
  "bytecode": "0x608060405234801561001057600080fd5b506112d6806100206000396000f3fe608060405234801561001057600080fd5b50600436106100625760003560e01c806336d6da551461006757806370c2b41914610083578063bc8bef81146100b4578063cf8aacdd146100d2578063eb39113f146100ee578063ff9913e81461011e575b600080fd5b610081600480360381019061007c9190610d2a565b61013a565b005b61009d60048036038101906100989190610dc0565b6101b9565b6040516100ab929190610e2a565b60405180910390f35b6100bc610223565b6040516100c99190610f4f565b60405180910390f35b6100ec60048036038101906100e79190610f71565b61032c565b005b61010860048036038101906101039190610f71565b61054f565b60405161011591906110f9565b60405180910390f35b61013860048036038101906101339190610f71565b61076c565b005b6000808473ffffffffffffffffffffffffffffffffffffffff1673ffffffffffffffffffffffffffffffffffffffff1681526020019081526020016000208282909180600181540180825580915050600190039060005260206000200160009091929091929091929091925091906101b3929190610bba565b50505050565b600260205281600052604060002081815481106101d557600080fd5b90600052602060002001600091509150508060000160009054906101000a900473ffffffffffffffffffffffffffffffffffffffff16908060000160149054906101000a900460ff16905082565b6060600260003373ffffffffffffffffffffffffffffffffffffffff1673ffffffffffffffffffffffffffffffffffffffff168152602001908152602001600020805480602002602001604051908101604052809291908181526020016000905b82821015610323578382906000526020600020016040518060400160405290816000820160009054906101000a900473ffffffffffffffffffffffffffffffffffffffff1673ffffffffffffffffffffffffffffffffffffffff1673ffffffffffffffffffffffffffffffffffffffff1681526020016000820160149054906101000a900460ff16151515158152505081526020019060010190610284565b50505050905090565b6000600160003373ffffffffffffffffffffffffffffffffffffffff1673ffffffffffffffffffffffffffffffffffffffff16815260200190815260200160002060008373ffffffffffffffffffffffffffffffffffffffff1673ffffffffffffffffffffffffffffffffffffffff16815260200190815260200160002060006101000a81548160ff02191690831515021790555060005b600260003373ffffffffffffffffffffffffffffffffffffffff1673ffffffffffffffffffffffffffffffffffffffff1681526020019081526020016000208054905081101561054b578173ffffffffffffffffffffffffffffffffffffffff16600260003373ffffffffffffffffffffffffffffffffffffffff1673ffffffffffffffffffffffffffffffffffffffff16815260200190815260200160002082815481106104765761047561111b565b5b9060005260206000200160000160009054906101000a900473ffffffffffffffffffffffffffffffffffffffff1673ffffffffffffffffffffffffffffffffffffffff161415610538576000600260003373ffffffffffffffffffffffffffffffffffffffff1673ffffffffffffffffffffffffffffffffffffffff16815260200190815260200160002082815481106105135761051261111b565b5b9060005260206000200160000160146101000a81548160ff0219169083151502179055505b808061054390611179565b9150506103c4565b5050565b60603373ffffffffffffffffffffffffffffffffffffffff168273ffffffffffffffffffffffffffffffffffffffff161480610618575060011515600160008473ffffffffffffffffffffffffffffffffffffffff1673ffffffffffffffffffffffffffffffffffffffff16815260200190815260200160002060003373ffffffffffffffffffffffffffffffffffffffff1673ffffffffffffffffffffffffffffffffffffffff16815260200190815260200160002060009054906101000a900460ff161515145b610657576040517f08c379a000000000000000000000000000000000000000000000000000000000815260040161064e9061121f565b60405180910390fd5b6000808373ffffffffffffffffffffffffffffffffffffffff1673ffffffffffffffffffffffffffffffffffffffff168152602001908152602001600020805480602002602001604051908101604052809291908181526020016000905b828210156107615783829060005260206000200180546106d49061126e565b80601f01602080910402602001604051908101604052809291908181526020018280546107009061126e565b801561074d5780601f106107225761010080835404028352916020019161074d565b820191906000526020600020905b81548152906001019060200180831161073057829003601f168201915b5050505050815260200190600101906106b5565b505050509050919050565b60018060003373ffffffffffffffffffffffffffffffffffffffff1673ffffffffffffffffffffffffffffffffffffffff16815260200190815260200160002060008373ffffffffffffffffffffffffffffffffffffffff1673ffffffffffffffffffffffffffffffffffffffff16815260200190815260200160002060006101000a81548160ff02191690831515021790555060011515600360003373ffffffffffffffffffffffffffffffffffffffff1673ffffffffffffffffffffffffffffffffffffffff16815260200190815260200160002060008373ffffffffffffffffffffffffffffffffffffffff1673ffffffffffffffffffffffffffffffffffffffff16815260200190815260200160002060009054906101000a900460ff1615151415610a265760005b600260003373ffffffffffffffffffffffffffffffffffffffff1673ffffffffffffffffffffffffffffffffffffffff16815260200190815260200160002080549050811015610a20578173ffffffffffffffffffffffffffffffffffffffff16600260003373ffffffffffffffffffffffffffffffffffffffff1673ffffffffffffffffffffffffffffffffffffffff168152602001908152602001600020828154811061094b5761094a61111b565b5b9060005260206000200160000160009054906101000a900473ffffffffffffffffffffffffffffffffffffffff1673ffffffffffffffffffffffffffffffffffffffff161415610a0d576001600260003373ffffffffffffffffffffffffffffffffffffffff1673ffffffffffffffffffffffffffffffffffffffff16815260200190815260200160002082815481106109e8576109e761111b565b5b9060005260206000200160000160146101000a81548160ff0219169083151502179055505b8080610a1890611179565b915050610899565b50610bb7565b600260003373ffffffffffffffffffffffffffffffffffffffff1673ffffffffffffffffffffffffffffffffffffffff16815260200190815260200160002060405180604001604052808373ffffffffffffffffffffffffffffffffffffffff168152602001600115158152509080600181540180825580915050600190039060005260206000200160009091909190915060008201518160000160006101000a81548173ffffffffffffffffffffffffffffffffffffffff021916908373ffffffffffffffffffffffffffffffffffffffff16021790555060208201518160000160146101000a81548160ff02191690831515021790555050506001600360003373ffffffffffffffffffffffffffffffffffffffff1673ffffffffffffffffffffffffffffffffffffffff16815260200190815260200160002060008373ffffffffffffffffffffffffffffffffffffffff1673ffffffffffffffffffffffffffffffffffffffff16815260200190815260200160002060006101000a81548160ff0219169083151502179055505b50565b828054610bc69061126e565b90600052602060002090601f016020900481019282610be85760008555610c2f565b82601f10610c0157803560ff1916838001178555610c2f565b82800160010185558215610c2f579182015b82811115610c2e578235825591602001919060010190610c13565b5b509050610c3c9190610c40565b5090565b5b80821115610c59576000816000905550600101610c41565b5090565b600080fd5b600080fd5b600073ffffffffffffffffffffffffffffffffffffffff82169050919050565b6000610c9282610c67565b9050919050565b610ca281610c87565b8114610cad57600080fd5b50565b600081359050610cbf81610c99565b92915050565b600080fd5b600080fd5b600080fd5b60008083601f840112610cea57610ce9610cc5565b5b8235905067ffffffffffffffff811115610d0757610d06610cca565b5b602083019150836001820283011115610d2357610d22610ccf565b5b9250929050565b600080600060408486031215610d4357610d42610c5d565b5b6000610d5186828701610cb0565b935050602084013567ffffffffffffffff811115610d7257610d71610c62565b5b610d7e86828701610cd4565b92509250509250925092565b6000819050919050565b610d9d81610d8a565b8114610da857600080fd5b50565b600081359050610dba81610d94565b92915050565b60008060408385031215610dd757610dd6610c5d565b5b6000610de585828601610cb0565b9250506020610df685828601610dab565b9150509250929050565b610e0981610c87565b82525050565b60008115159050919050565b610e2481610e0f565b82525050565b6000604082019050610e3f6000830185610e00565b610e4c6020830184610e1b565b9392505050565b600081519050919050565b600082825260208201905092915050565b6000819050602082019050919050565b610e8881610c87565b82525050565b610e9781610e0f565b82525050565b604082016000820151610eb36000850182610e7f565b506020820151610ec66020850182610e8e565b50505050565b6000610ed88383610e9d565b60408301905092915050565b6000602082019050919050565b6000610efc82610e53565b610f068185610e5e565b9350610f1183610e6f565b8060005b83811015610f42578151610f298882610ecc565b9750610f3483610ee4565b925050600181019050610f15565b5085935050505092915050565b60006020820190508181036000830152610f698184610ef1565b905092915050565b600060208284031215610f8757610f86610c5d565b5b6000610f9584828501610cb0565b91505092915050565b600081519050919050565b600082825260208201905092915050565b6000819050602082019050919050565b600081519050919050565b600082825260208201905092915050565b60005b83811015611004578082015181840152602081019050610fe9565b83811115611013576000848401525b50505050565b6000601f19601f8301169050919050565b600061103582610fca565b61103f8185610fd5565b935061104f818560208601610fe6565b61105881611019565b840191505092915050565b600061106f838361102a565b905092915050565b6000602082019050919050565b600061108f82610f9e565b6110998185610fa9565b9350836020820285016110ab85610fba565b8060005b858110156110e757848403895281516110c88582611063565b94506110d383611077565b925060208a019950506001810190506110af565b50829750879550505050505092915050565b600060208201905081810360008301526111138184611084565b905092915050565b7f4e487b7100000000000000000000000000000000000000000000000000000000600052603260045260246000fd5b7f4e487b7100000000000000000000000000000000000000000000000000000000600052601160045260246000fd5b600061118482610d8a565b91507fffffffffffffffffffffffffffffffffffffffffffffffffffffffffffffffff8214156111b7576111b661114a565b5b600182019050919050565b600082825260208201905092915050565b7f596f752068617665206e6f742061636365737300000000000000000000000000600082015250565b60006112096013836111c2565b9150611214826111d3565b602082019050919050565b60006020820190508181036000830152611238816111fc565b9050919050565b7f4e487b7100000000000000000000000000000000000000000000000000000000600052602260045260246000fd5b6000600282049050600182168061128657607f821691505b6020821081141561129a5761129961123f565b5b5091905056fea2646970667358221220775c570ea7ce98e62ab8147d7e6afcac77fdda10ca595a431aa8758da827320a64736f6c63430008090033",
  "linkReferences": {},
  "deployedLinkReferences": {}
}